{
  "_format": "hh-sol-artifact-1",
  "contractName": "DFSPAnchoring",
  "sourceName": "src/DFSPAnchoring.sol",
  "abi": [
    {
      "inputs": [
        {
          "internalType": "address",
          "name": "owner_",
          "type": "address"
        }
      ],
      "stateMutability": "nonpayable",
      "type": "constructor"
    },
    {
      "anonymous": false,
      "inputs": [
        {
          "indexed": true,
          "internalType": "bytes32",
          "name": "root",
          "type": "bytes32"
        },
        {
          "indexed": true,
          "internalType": "uint64",
          "name": "periodId",
          "type": "uint64"
        }
      ],
      "name": "Anchored",
      "type": "event"
    },
    {
      "anonymous": false,
      "inputs": [
        {
          "indexed": true,
          "internalType": "address",
          "name": "previousOwner",
          "type": "address"
        },
        {
          "indexed": true,
          "internalType": "address",
          "name": "newOwner",
          "type": "address"
        }
      ],
      "name": "OwnershipTransferred",
      "type": "event"
    },
    {
      "inputs": [
        {
          "internalType": "bytes32",
          "name": "root",
          "type": "bytes32"
        },
        {
          "internalType": "uint64",
          "name": "periodId",
          "type": "uint64"
        }
      ],
      "name": "anchorMerkleRoot",
      "outputs": [],
      "stateMutability": "nonpayable",
      "type": "function"
    },
    {
      "inputs": [],
      "name": "owner",
      "outputs": [
        {
          "internalType": "address",
          "name": "",
          "type": "address"
        }
      ],
      "stateMutability": "view",
      "type": "function"
    },
    {
      "inputs": [],
      "name": "renounceOwnership",
      "outputs": [],
      "stateMutability": "nonpayable",
      "type": "function"
    },
    {
      "inputs": [
        {
          "internalType": "address",
          "name": "newOwner",
          "type": "address"
        }
      ],
      "name": "transferOwnership",
      "outputs": [],
      "stateMutability": "nonpayable",
      "type": "function"
    }
  ],
  "bytecode": "0x608060405234801561001057600080fd5b5060405161039838038061039883398101604081905261002f91610097565b61003833610047565b61004181610047565b506100c7565b600080546001600160a01b038381166001600160a01b0319831681178455604051919092169283917f8be0079c531659141344cd1fd0a4f28419497f9722a3daafe3b4186f6b6457e09190a35050565b6000602082840312156100a957600080fd5b81516001600160a01b03811681146100c057600080fd5b9392505050565b6102c2806100d66000396000f3fe608060405234801561001057600080fd5b506004361061004c5760003560e01c806330b16e3f14610051578063715018a6146100665780638da5cb5b1461006e578063f2fde38b1461008d575b600080fd5b61006461005f36600461021f565b6100a0565b005b6100646100e3565b600054604080516001600160a01b039092168252519081900360200190f35b61006461009b36600461025c565b6100f7565b6100a8610175565b60405167ffffffffffffffff82169083907f41c3f410f5c8ac36bb46b1dccef0de0f964087c9e688795fa02ecfa2c20b3fe490600090a35050565b6100eb610175565b6100f560006101cf565b565b6100ff610175565b6001600160a01b0381166101695760405162461bcd60e51b815260206004820152602660248201527f4f776e61626c653a206e6577206f776e657220697320746865207a65726f206160448201526564647265737360d01b60648201526084015b60405180910390fd5b610172816101cf565b50565b6000546001600160a01b031633146100f55760405162461bcd60e51b815260206004820181905260248201527f4f776e61626c653a2063616c6c6572206973206e6f7420746865206f776e65726044820152606401610160565b600080546001600160a01b038381166001600160a01b0319831681178455604051919092169283917f8be0079c531659141344cd1fd0a4f28419497f9722a3daafe3b4186f6b6457e09190a35050565b6000806040838503121561023257600080fd5b82359150602083013567ffffffffffffffff8116811461025157600080fd5b809150509250929050565b60006020828403121561026e57600080fd5b81356001600160a01b038116811461028557600080fd5b939250505056fea2646970667358221220e9658ff18aca3fa0b1b143cc87aa42278592a06e57458a7e302bdf610a6803fb64736f6c63430008180033",
  "linkReferences": {},
  "deployedLinkReferences": {}
}